:020000040001F9
:1060000018380020A1610100BB610100BD610100E1
:106010000000000000000000000000000000000080
:10602000000000000000000000000000BF6101004F
:106030000000000000000000C1610100C361010018
:10604000C5610100C561010069680100C561010009
:10605000C561010000000000E9650100C5610100A3
:10606000C5610100C5610100C5610100C561010094
:10607000C5610100C5610100C5610100C561010084
:10608000C5610100C9670100C5610100C56101006A
:10609000F1670100C5610100F9670100C5610100F8
:1060A000C5610100C56101000000000000000000A2
:1060B00000000000000000000000000000000000E0
:1060C00000F002F800F030F80CA030C808382418AE
:1060D0002D18A246671EAB4654465D46AC4201D120
:1060E00000F022F87E460F3E0FCCB6460126334222
:1060F00000D0FB1AA246AB4633431847A05F00000E
:10610000C05F00000023002400250026103A01D3C0
:1061100078C1FBD8520700D330C100D50B6070475F
:106120001FB51FBD10B510BD00F010FA1146FFF7E6
:10613000F7FF04F037F800F028FA03B4FFF7F2FF96
:1061400003BC00F02DFA0000401E00BF00BF00BFDE
:1061500000BF00BF00BF00BF00BF00BF00BF00BF47
:1061600000BFF1D17047000070B505460C461646D9
:1061700002E00FCC0FC5103E102EFAD2082E02D32B
:1061800003CC03C5083E042E07D301CC01C5361F3E
:1061900003E021782970641C6D1C761EF9D270BD55
:1061A00003210C4802680A4302600B4802680A4354
:1061B00002600A4880470A480047FEE7FEE7FEE71C
:1061C000FEE7FEE7FEE7000006480749074A084BDE
:1061D000704700002405004054050040316801006C
:1061E000C160010018280020183800201830002055
:1061F00018300020034610B50B439B070FD1042A2B
:106200000DD308C810C9121FA342F8D018BA21BA7A
:10621000884201D9012010BD0020C04310BD002AD2
:1062200003D0D30703D0521C07E0002010BD037831
:106230000C78401C491C1B1B07D103780C78401CB0
:10624000491C1B1B01D1921EF1D1184610BD000044
:1062500030B5441C03E00178401C00290DD08107B3
:10626000F9D10B4BDD0104C8D11A91432940FAD072
:10627000001B0A0603D0C01E30BD001B30BD0A043F
:1062800001D0801E30BD0902FCD0401E30BD000090
:1062900001010101F8B5042A2CD3830712D00B7831
:1062A000491C0370401C521E83070BD00B78491CFD
:1062B0000370401C521E830704D00B78491C0370E6
:1062C000401C521E8B079B0F05D0C91ADF002023EC
:1062D000DE1B08C90AE0FFF747FFF8BD1D4608C9E5
:1062E000FD401C46B4402C4310C0121F042AF5D2B6
:1062F000F308C91A521EF0D40B78491C0370401CD5
:10630000521EEAD40B78491C0370401C012AE4D4C5
:1063100009780170F8BD431A70B593421BD28918F1
:10632000801804E0491E401E0B78521E037093072C
:10633000F8D106E01039103878C9103978C0103813
:10634000103A102AF6D203E0091F001F0B68036001
:10635000121FF9D570BDFFF707FF70BDF8B50646EF
:1063600014460843800707D0751AA54219D20819A8
:10637000102D13D2311907E03046FFF7CCFFF8BDDE
:10638000401E491E02780A70641EF9D2F8BD471BF0
:106390002A463946FFF77EFF641B3846A542F6D3EE
:1063A000011B22463046FFF775FFF8BD01E004C02F
:1063B000091F0429FBD28B0701D50280801CC90765
:1063C00000D00270704700290BD0C30702D00270C2
:1063D000401C491E022904D3830702D50280801C79
:1063E000891EE3E70022EEE70022DFE7002203092F
:1063F0008B422CD3030A8B4211D300239C464EE0E0
:1064000003460B433CD4002243088B4231D303099B
:106410008B421CD3030A8B4201D394463FE0C3094D
:106420008B4201D3CB01C01A524183098B4201D365
:106430008B01C01A524143098B4201D34B01C01A50
:10644000524103098B4201D30B01C01A5241C308C8
:106450008B4201D3CB00C01A524183088B4201D337
:106460008B00C01A524143088B4201D34B00C01A23
:106470005241411A00D201465241104670475DE038
:10648000CA0F00D04942031000D3404253400022BB
:106490009C4603098B422DD3030A8B4212D3FC2264
:1064A000890112BA030A8B420CD3890192118B42E3
:1064B00008D3890192118B4204D389013AD09211F9
:1064C00000E08909C3098B4201D3CB01C01A5241B4
:1064D00083098B4201D38B01C01A524143098B427D
:1064E00001D34B01C01A524103098B4201D30B0166
:1064F000C01A5241C3088B4201D3CB00C01A52418B
:1065000083088B4201D38B00C01A5241D9D2430871
:106510008B4201D34B00C01A5241411A00D20146AE
:10652000634652415B10104601D34042002B00D518
:106530004942704763465B1000D3404201B50020DA
:10654000C046C04602BD704770477047754600F0B0
:1065500023F8AE46050069465346C008C00085468C
:1065600018B020B5FFF730FE60BC00274908B646DA
:106570000026C0C5C0C5C0C5C0C5C0C5C0C5C0C552
:10658000C0C5403D49008D4670470446C046C046E0
:106590002046FFF7D2FD000000487047B4270020D6
:1065A00001491820ABBEFEE726000200704730B557
:1065B0008C180278401C13071B0F01D10378401C74
:1065C000120906D10278401C03E00578401C0D70CA
:1065D000491C5B1EF9D101E00B70491C521EFBD116
:1065E000A142E6D3002030BDF0B585B0264805694C
:1065F00000202649C86300263FE014207043244948
:10660000096844180120B040224909680840002860
:1066100031D0E068C04368402168084007463946E9
:10662000204604F0B5FD18480069684003900398BF
:1066300000280ED003980543E068C04368402168F5
:10664000084000902046009904F0A2FD00980743FE
:1066500000BFA068A84338400190606828403840D7
:106660000290019902980843002803D022690199F9
:106670000298904700BF701CC6B207480078864257
:10668000BBDB05B0F0BD00000005005040610040DC
:1066900030210020282100202D210020C206D20E0A
:1066A00001219140014A11607047000080E200E042
:1066B000C206D20E01219140014A116070470000CC
:1066C00000E100E0C206D20E01219140014A1160B2
:1066D0007047000000E200E010B5002819DA1A4AFD
:1066E00003071B0F083B9B089B00D2588307DC0E57
:1066F000FF23A3409A438B071B0E8407E40EA3409D
:106700001A43114B0407240F083CA408A4001A5193
:1067100018E00E4A03231B02D21883089B00D258AC
:106720008307DC0EFF23A3409A438B071B0E8407CD
:10673000E40EA3401A43054B032424021B198408CA
:10674000A4001A5110BD00001CED00E000E100E0C3
:1067500010B5002819DA1A4A03071B0F083B9B08DB
:106760009B00D2588307DC0EFF23A3409A438B077C
:106770001B0E8407E40EA3401A43114B0407240F99
:10678000083CA408A4001A5118E00E4A03231B0277
:10679000D21883089B00D2588307DC0EFF23A34046
:1067A0009A438B071B0E8407E40EA3401A43054B44
:1067B000032424021B198408A4001A5110BD0000F0
:1067C0001CED00E000E100E010B500200749086082
:1067D0000021064841608160C160002003494039C2
:1067E0000860486005F0FCF910BD00004011014050
:1067F00010B505F0A5F810BD70B50C48006800286C
:1068000010D00A4800688047044600BF2546002D86
:1068100006D000BF00221146284600F0BBFA00BF98
:1068200000BF01E003F0E8FA70BD00006021002025
:1068300010B503F06DFB002805D0074807494860F4
:10684000C8130749886103F047FB002802D00120E4
:106850000449886010BD0000DFFF07C0000500404C
:10686000006C0040000600401CB5244880680028E9
:1068700024D000202149886021488069C1B2214884
:1068800000F0B8FA0446002C08D0012069460870D0
:10689000019468461C49096888470EE01948C06899
:1068A00018498968401A012807D1002069460870F4
:1068B000684615490968884700BF00BF0F48C0698E
:1068C000002805D000200D49C861032003F0C6FE52
:1068D0000A48406A00280FD000200849486208484A
:1068E0008038046804600220694608700194684694
:1068F00005490968884700BF1CBD00000021004011
:1069000000250040B8260020F420002030B4744652
:10691000641E2578641CAB4204D3635D5B00E318FE
:1069200030BC18471D46F8E710B50648C068054951
:106930008968401A02D000F007F801E000F02EF854
:1069400010BD0000C826002008B50F4800780228B6
:1069500002D001200D49886069460D4800F038FAE0
:10696000002802D000F01AF808BD8020094988608C
:10697000684600780849C8610220034908708020F1
:106980000449486000BFEFE7F820002000200040E5
:10699000C826002000230040002500401CB501202F
:1069A0000549C860054908700320694608706846B3
:1069B0000349096888471CBD00200040F8200020DA
:1069C000F420002000200549087001200449C86017
:1069D000486000200349086070470000F82000204C
:1069E0000020004000250040F8B504460F4616463A
:1069F0000025002030702078002809D03246394622
:106A0000204603F046FC0546002D01D02846F8BD7F
:106A1000A078002808D03146384600F071FC0546C1
:106A2000002D01D02846F2E7A08800280ADD334671
:106A30003A460121201D05F0CCF90546002D01D074
:106A40002846E4E7E06800280BD00020E1680856FB
:106A50003246394605F08AF90546002D01D0284610
:106A6000D5E7208A00280CDD3B460622022120467D
:106A70001030009605F057FA0546002D01D0284643
:106A8000C5E7208B00280CDD3B460722032120466A
:106A90001830009605F047FA0546002D01D028462B
:106AA000B5E7208C00280CDD3B461522142120463A
:106AB0002030009605F037FA0546002D01D0284613
:106AC000A5E7A06A002809D032463946A06A01F03D
:106AD0008BFF0546002D01D0284698E7E06A002884
:106AE00009D032463946E06A03F09EFB0546002D88
:106AF00001D028468BE73420005D002809DD3246AE
:106B00003946204604F0CAFB0546002D01D0284630
:106B10007DE728467BE701468888002808D08868FA
:106B2000002805D08868007804221040002801D190
:106B3000072070470020FCE730B593B00621049190
:106B40001A4A07CA01AB07C3382105A8FFF74CFC56
:106B500002216846017501218175018304A907910D
:106B60000321818501A90C91002105A800F05CFD9D
:106B7000044600BF2546002D06D000BF0022114666
:106B8000284600F007F900BF00BF14210848FFF7AE
:106B90002BFC00200649087048600872FF202D3049
:106BA0000882B420488213B030BD00002CC0010020
:106BB0007821002030B593B0042104915921684612
:106BC00081801949039117210181382105A8FFF718
:106BD0000BFC0021684601750121018304A907917E
:106BE00001A81090002105A800F01EFD044600BF7A
:106BF0002546002D06D000BF00221146284600F091
:106C0000C9F800BF00BF14210848FFF7EDFB0320BF
:106C100006490870002048600872A0200882002001
:106C2000488213B030BD00000020002078210020F1
:106C300038B5684603F058FE044600BF2546002DCF
:106C400006D000BF00221146284600F0A3F800BF7E
:106C500000BF0098002803D001201249087038BDF9
:106C6000114873DF044600BF2546002D06D000BF43
:106C700000221146284600F08DF800BF00BF022018
:106C800001F052F9044600BF2546002D06D000BF92
:106C900000221146284600F07DF800BF00BF00BF6B
:106CA000DDE700004520002078210020014600BFDC
:106CB000064A50680122D2058243044B9A600122A1
:106CC000D2050240DA6000BF7047000000050050A6
:106CD00010B505480068002801D1082010BD034800
:106CE000007800F003F9F9E70821002018210020BE
:106CF000FFB583B006460C461746052F02D2072083
:106D000007B0F0BD1B4806601B4804701B480760B5
:106D10001B4906980860002515E0E10088190278F3
:106D200000928178019101998900052212070723B9
:106D30001B02D318009A9200995000BF02780121DB
:106D400091400D4300BF2046611ECCB20028E4D123
:106D50000C4B2A4629460C4800F046F9029002984E
:106D6000002801D00298CBE7084A0021084800F02B
:106D7000BDF9C5E7082100200C21002010210020CA
:106D800014210020919B010018210020318C01006A
:106D90001C21002000BFBFF34F8F04480449C86086
:106DA000BFF34F8F00BF00BFFEE700000400FA05ED
:106DB00000ED00E0F8B504460D46164603480768A6
:106DC000324629462046B847F8BD0000AC260020D0
:106DD0000246D0689368C01A0AD090689388184019
:106DE0001368185C08709068401C90600020704721
:106DF0000520FCE70246D0689368C01A9388984241
:106E000009D8D0689388184013681954D068401C7A
:106E1000D060002070470420FCE7000070B50546F4
:106E20000C46002C01D1072070BD20468107890F38
:106E3000002901D1012100E00021002901D1072012
:106E4000F2E71348046013480570002012490870E7
:106E5000124908600F4800781422504301460C483C
:106E60000068FFF7C1FA0020C0430D498860062082
:106E7000012181400B4A116000BF0121FFF72CFC6A
:106E8000062001218140084A116000BF0020CBE7A5
:106E9000302100202C2100202D210020282100203D
:106EA0000063004080E200E000E100E010B502462F
:106EB0000B480068002801D1082010BD094800785F
:106EC000824201DB0720F8E714205043044C246879
:106ED0000319054800691C68204008600020ECE7A1
:106EE000302100202D21002000050050F0B5024681
:106EF00037480068002801D10820F0BD35480078E7
:106F0000824201DB0720F8E70020334BD863334887
:106F1000046933480068002802D15806314B586094
:106F2000012090402E4B1B6818432D4B1860002306
:106F300014205043264D2D684019C360002142E0C3
:106F400001238B40184614235343214D2D68EB58E1
:106F50000340002B36D025460540002D02D00323E8
:106F60001B040EE001235B0414255543184E3668BC
:106F7000AD19ED68054314265643154F3F68F619C1
:106F8000F56005252D0707263602AD198E00AD598F
:106F900003263604B5430526360707273F02F619B0
:106FA0008F00F55105252D0707263602AD198E00F5
:106FB000AD591D430526360707273F02F6198F00F6
:106FC000F55100BF491C2029BAD3002095E70000E5
:106FD000302100202D21002040610040000500509C
:106FE0002821002000630040F8B504460D461646EF
:106FF0001F4620480068002801D10820F8BD002F56
:1070000001D10720FAE71C4800781C49097888421A
:1070100001DB0420F2E7284630431749097814229F
:107020005143144A126850501348007814214843C1
:1070300010490968401845600F48007814214843FA
:107040000C490968401886600B48007814214843B1
:107050000849096840180761074800782070064809
:107060000078401C04490870207803F0A9FB002038
:10707000C4E70000302100202D2100202C21002019
:10708000F8B5044617480078142148431549091DEE
:107090000E5C081F0078142148431249091D40184E
:1070A0008068000110490D580E48007814214843AB
:1070B0000C49091D40184088091F009009781422C6
:1070C0005143084A121D89180B69111F09781422AF
:1070D0005143044A121D8918084608302246314699
:1070E000A847F8BDD8260020A427002070B5034685
:1070F0000C4619480068002801D1082070BD002AFC
:1071000001D10720FAE7002B01D10720F6E7002183
:107110001CE024204843104D2D68285C002814D121
:107120000125242048430C4E36683554242048431A
:10713000094D2D684019447024204843064D2D68A0
:107140004019826119600020D8E7491C0348007883
:107150008142DEDB0420D1E73821002034210020E9
:10716000FFB581B00E4617461C4620468107890FA1
:10717000002901D1012100E00021002902D10720CE
:1071800005B0F0BD002C01D10720F9E703F0D4FFD2
:1071900026490A980860264806702648046000259B
:1071A0000CE0002124206843224A12681154242054
:1071B0006843204A1268801801756D1CB542F0DBE7
:1071C00024207043041903201B4908701B480460E5
:1071D000183400250CE0E900184A126888180021CC
:1071E0000170417087704460182179430C196D1C3F
:1071F000032DF0DB0020C043114908600020114935
:107200000870114908701420FFF748FA0321142070
:10721000FFF79EFA1420FFF74BFA019803F062FF84
:1072200003F05AFF094908600020A9E7582100200F
:1072300034210020382100203C2100204021002062
:107240004421002054210020552100204821002005
:10725000FEB504460D46164616480068002801D1C2
:107260000820FEBD14480078844201D2052D01D2C9
:107270000720F6E7242060430E490968085C0128CE
:1072800001D00820EDE7242060430A49096840182E
:107290004078012801D1284600E00020074604F08C
:1072A00019FE3B462A4621460096019004F04EFC0A
:1072B000D7E70000382100203421002070B50446B3
:1072C0000D480068002801D1082070BD0B480078E7
:1072D000844201D30720F8E7242060430649096867
:1072E000085C012801D00820EFE704F0F3FD054613
:1072F000214604F055FCE8E7382100203421002025
:10730000F8B505460C462078001D1F2801DD0C202D
:10731000F8BD684679DF0646002E01D03046F7E713
:1073200003212278501C2070A95419212278501C66
:107330002070A954207841196846008804F02EFD79
:107340002178401820700020E2E7000070B500228C
:107350000121090426480068FFF77AFF044600BFB0
:107360002546002D06D000BF002211462846FFF713
:1073700011FD00BF00BF00220121C9031D480068A4
:10738000FFF766FF044600BF2546002D06D000BF6C
:10739000002211462846FFF7FDFC00BF00BF002277
:1073A000154916480068FFF753FF044600BF2546FD
:1073B000002D06D000BF002211462846FFF7EAFC48
:1073C00000BF00BF00220521C9030D480068FFF778
:1073D0003FFF044600BF2546002D06D000BF002217
:1073E00011462846FFF7D6FC00BF00BF70BD000065
:1073F0003420002038200020662600003C20002099
:1074000040200020F0B591B004460D46207D0028B4
:1074100019D00020099000BF08A8007901090901CE
:10742000491C08A801710079F0218843103008A98F
:10743000087100BF697B08A84171807906218843E3
:10744000801C08A988711C210AA8FEF7CDFF08A896
:10745000007A02218843811C08A80172007A102159
:107460008843217D002901D0012100E0002109018C
:1074700010221140084308A9087200200B900D90BB
:107480000E90207D002801D009A800E000200F9078
:107490000020109000BF0121684681734949818115
:1074A00000BF00200290A97B68460172E97B41720F
:1074B000807A06218843811C68468172807A08217F
:1074C0008843014668468172807A102188430146CC
:1074D00068468172807A4108490068468172297B3A
:1074E0000191142104A8FEF77FFF03A8049002A8CD
:1074F0000590012168460183002141830121818398
:1075000001A80890A088A31D04AA0AA9A2DF064624
:10751000002E02D0304611B0F0BDA86800284DD032
:1075200000BF0121684681732749818100BF002087
:107530000290287C6946087200BF6846407A0109BB
:10754000090168464172407AF021884369464872D1
:1075500000BF6846807A06218843811C6846817294
:10756000807A08218843014668468172807A10211A
:107570008843014668468172807A4108490068461E
:107580008172A96800F03FFB0746142104A8FEF7AA
:107590002BFF03A8049002A80590684607830021EA
:1075A0004183018B81830890E08822460E3204A932
:1075B000A3DF0646002E03D03046ACE70020E08172
:1075C0000020A8E7192A00000829000010B5044689
:1075D00000F002F810BD000070B50E490E4800F032
:1075E000E4FAC5B229460D4800F05CF80446002CC8
:1075F0000ED0082C0CD00A48844209D00948844295
:1076000006D000BF002211462046FFF7C3FB00BF93
:1076100070BD0000F42100201C2000208C210020DF
:107620000430000001340000F3B593B00D46002192
:10763000129111911398002814D01398FFF76BFA48
:107640000446002C02D0204615B0F0BD12AA09A9AC
:107650001398FFF7C9F90446002C01D02046F3E740
:1076600009AE00E00026002D13D0284603F0B6FF37
:107670000446002C01D02046E6E711AA01A92846BD
:10768000FFF7B2F90446002C01D02046DCE701AF39
:1076900000E0002710A803793A46017A304672DFED
:1076A000D2E7000033B585B004460025207C69464A
:1076B000097E88422FD0012104916846007E207403
:1076C000E08806AB04AA0021A4DF0546002D02D005
:1076D000284607B030BD608A1049884219D0207D05
:1076E000002816D000200090019002900390012104
:1076F0000491E18868460180012181700021818028
:1077000004A8029006A80390608A6946A6DF054691
:1077100000E0082500BF2846DBE70000FFFF00006F
:10772000F8B504460D46286820600020C0436082FA
:1077300028792075FF20207400BF012168468170E0
:107740000849018000BF221D69460120A0DF0646CE
:10775000002E01D03046F8BD29462046FFF752FEE4
:10776000F9E700000F18000070B505460C462088A8
:10777000102804D0112807D050280FD109E0214645
:10778000284602F0ABFE0AE02146284602F00CFF34
:1077900005E02146284602F0B5FF00E000BF00BF2B
:1077A00070BD000070B505461C2229461448FEF73E
:1077B000DBFC002013490870286800280BD0082241
:1077C00011482968FEF766FD0F487ADF0446002C51
:1077D00008D0204670BD0C487BDF0446002C01D049
:1077E0002046F7E70020C0430849088000200849E8
:1077F0000870084A00210848FFF778FCEAE7000013
:107800009025002088200020702000207A20002071
:107810007820002039BE01008420002010B50446E5
:107820002088102806D0112808D012280ED0502801
:1078300010D107E0204602F033FE0CE0204602F0B3
:1078400091FE08E0204602F02FFF04E0204602F0FF
:107850001BFE00E000BF00BF10BD00007FB5044666
:1078600000BF0121684681735D49818100BF5D4A87
:1078700003A90120A0DF0546002D02D0284604B050
:1078800070BD208800280DDD5748009022882346CF
:107890003C335648616800F06DFE0546002D01D06E
:1078A0002846ECE7208900280EDD51480090228907
:1078B00023463C334D48401FE16800F05BFE05461F
:1078C000002D01D02846DAE7208A00280EDD49483D
:1078D0000090228A23463C334448001F616900F02F
:1078E00049FE0546002D01D02846C8E7208B002818
:1078F0000EDD41480090228B23463C333B48801EDE
:10790000E16900F037FE0546002D01D02846B6E7B4
:10791000208C00280EDD39480090228C23463C3311
:107920003248C01E616A00F025FE0546002D01D0D8
:107930002846A4E7208D00280EDD31480090228DD6
:1079400023463C332948401EE16A00F013FE0546F9
:10795000002D01D0284692E7206B002813D001A803
:10796000216B03F076FF274823463C33082201A908
:1079700000901E48801F00F0FDFD0546002D01D03F
:1079800028467CE700BF606B00280FD01E4800909F
:10799000606B027923463C3301681448401C00F0B8
:1079A000E9FD0546002D01D0284668E7A06B0028B8
:1079B00013D001A8A16B02F037FF144823463C33D3
:1079C000072201A900900948273000F0D3FD0546A1
:1079D000002D01D0284652E700BF00204FE70000ED
:1079E0000A180000A0200020A2200020292A000060
:1079F000AA200020B2200020BA200020C2200020AF
:107A0000CA200020D2200020DA200020E22000201E
:107A100010B50446204601F0B3FA2146064800F0AE
:107A200079F821460548FFF79FFE2046FFF7F6FE4E
:107A3000204602F083FC10BDA42100208C210020F0
:107A4000F0B58BB004460F46208C1549884222D0F1
:107A500006AA3946204602F071F90646059600202E
:107A60000190029003900490218968468180012151
:107A700081710021018105A8039006A80490208C43
:107A800001A9A6DF0546002D04D16846808AB042D0
:107A900000D00C2500E0082528460BB0F0BD000002
:107AA000FFFF0000F8B504460E46306820603079CC
:107AB00060710020C04320840021222001554C2009
:107AC000015300BF0121684681701149018000BF48
:107AD000A21D69460120A0DF0546002D01D02846E1
:107AE000F8BD3146204602F0B1F80546002D01D020
:107AF0002846F5E7B068002808D03146204600F057
:107B0000F1F80546002D01D02846E9E70020E7E717
:107B10000D18000070B505460C462088102804D0CA
:107B2000112807D050280FD109E02146284602F03D
:107B3000D8FC0AE02146284602F03AFD05E021463D
:107B4000284602F007FE00E000BF00BF70BD70B520
:107B500004460D464C20005B14280AD12622A118A9
:107B6000881EFEF7FBFB4C20005B401E81B24C20C0
:107B700001534C20015B005B401C82B24C2002533D
:107B8000490020462430455270BD222211547047CE
:107B90000A7B002A04D04A6802600022027103E0D6
:107BA0000A680260012202717047024610790028BB
:107BB0000FD048681368C01A8B68984204D91068BF
:107BC0008B68C018106013E04868106000201071C6
:107BD0000EE010680B68C01A8B68984204D91068D0
:107BE0008B68C01A106003E00868106001201071F3
:107BF0001068704770B504460D462846FEF728FB0E
:107C00002080656070BDF8B505460E4600243278C8
:107C10002146641C6A5472782146641C6A5400BF71
:107C2000022C01D1012000E000200746002F06D1E0
:107C300000BF002211461046FFF7ACF800BF00BF9E
:107C40002046F8BDF8B500BF002350222249082085
:107C500003F084FC054600BF2E46002E06D000BF70
:107C6000002211463046FFF795F800BF00BF00BF65
:107C7000002000900090684660DF044600BF254663
:107C8000002D06D000BF002211462846FFF782F8DB
:107C900000BF00BF114803F055FC044600BF254655
:107CA000002D06D000BF002211462846FFF772F8CB
:107CB00000BF00BF0A4803F085FC044600BF25460C
:107CC000002D06D000BF002211462846FFF762F8BB
:107CD00000BF00BFF8BD00002C250020117A010074
:107CE00041B8010030B58FB005460C461C2108A8EC
:107CF000FEF77AFB08A9087802218843801C08A9AE
:107D00000870002009900B900C900D900E9000BF11
:107D10000121684681721D49018100BF0020019048
:107D2000E17B68460171217C41718079062188439D
:107D3000811C684681718079082188430146684624
:107D4000817180791021884301466846817180796C
:107D50004108490068468171142103A8FEF744FBDD
:107D600002A8039001A804900121684681820021A5
:107D7000C18201210183A0680790E8882B46103357
:107D800003AA08A9A2DF0FB030BD0000382A000006
:107D90007CB50446A1786A460D4802F0BBFD054655
:107DA000002D13D16178182251430A4A88181C23E8
:107DB0001822694602F0C0FE0748807A8000074911
:107DC0000A58214668469047054600BF7CBD000022
:107DD0008C20002070260020AC26002078C00100F6
:107DE000F8B505460E4600270024012E16D10C4892
:107DF0000068002812D000E0641C042C04D2A0000B
:107E000008490858A842F7D1042C01D20648075D5A
:107E1000002F03D03846024909688847F8BD0000A2
:107E20006420002038C001006820002030B50246E0
:107E3000042A10D2094C2469E34300209400084D21
:107E40002D5D0124AC401C40002C01D0012400E039
:107E500000240C7000E0072030BD00000005005039
:107E600038C0010030B5034600224AE09000274C9C
:107E70002158012090401840002822D005200007FA
:107E80000724240200198C00005903242404A04371
:107E90000524240707252D0264198D006051052053
:107EA00000070724240200198C000059032424042D
:107EB00020430524240707252D0264198D006051F5
:107EC0001EE0052000070724240200198C00005939
:107ED00003242404A0430524240707252D02641944
:107EE0008D006051052000070724240200198C0032
:107EF00000590524240707252D0264198D006051BF
:107F0000521C042AB2D3002030BD000038C001004A
:107F100002460020042A02D2024B995400E00720B6
:107F2000704700006820002070B504460025064810
:107F30000078C007C00F002803D0204600F078F872
:107F40000546284670BD000058200020F7B582B0D5
:107F500005460F4600242D4807602D4805602D4931
:107F6000049808600220284000282AD0002607E054
:107F700030460B30C1B23046FFF7CAFF0446761CCC
:107F8000042E01D2002CF3D000BF7A080023042174
:107F90002148FEF7ADFE019000BF019800900098C7
:107FA000002806D000BF002211460098FEF7F2FE1E
:107FB00000BF00BF00BF002C02D1FEF789FE0446BF
:107FC00000BFE807C00F00280CD00F204004134961
:107FD000C86100BF000188600020C86000BF0F209A
:107FE00040058861002C05D10D4A00210D48FFF79E
:107FF0007DF80446002C05D10B4A01210B48FFF700
:1080000075F80446204605B0F0BD0000542000205D
:10801000582000206420002048C0010000050050C6
:10802000919F01005C200020AD6C010060200020C9
:10803000F8B50446002500262300FEF767FC180D5E
:1080400018195C9FF7F5F4F3F2F1F0EFEEEDECEBBD
:10805000EAE9E8E7E6E5E4E300BF0B204005FB4979
:1080600088600020C86000BFF94804704FE200BF7C
:1080700000BF05208005F54988600020C86000BF6A
:10808000084640680F21490548400121490508403C
:1080900000280FD000BF0846EC4988600020C86067
:1080A00000BF022C02D1E120C00001E07D20400190
:1080B00006460EE000BF01204005E449C8600020EC
:1080C000886000BF022C01D1C82001E0FF20913060
:1080D0000646DF48047064213046FEF787F9DD4923
:1080E00009684843074600223946DB480068FFF725
:1080F000AFF805460BE200BF05208005D349886034
:108100000020C86000BF084640680F21490548406C
:1081100001214905084000280FD000BF0846CB497F
:1081200088600020C86000BF032C02D119204001E4
:1081300001E07D20400106460EE000BF0120400521
:10814000C249C8600020886000BF032C01D1C8204C
:1081500001E0FF2091300646BD480470642130469E
:10816000FEF744F9BB4909684843074600223946EF
:10817000B9480068FFF76CF80546C8E100BF052064
:108180008005B24988600020C86000BF084640688A
:108190000F214905484001214905084000280FD01A
:1081A00000BF0846A94988600020C86000BF042CB1
:1081B00002D17D20400101E07D20400106460FE014
:1081C00000BF01204005A149C8600020886000BFB1
:1081D000042C02D1FF20913001E0FF2091300646AF
:1081E0009B48047064213046FEF700F999490968FC
:1081F000484307460022394697480068FFF728F8A9
:10820000054684E182E176E174E161E14EE13BE122
:108210002FE1F4E0F2E0F0E0EEE0ECE0E2E0C9E0D3
:10822000B2E099E082E06FE042E0FFE700BF0520A6
:108230008005864988600020C86000BF0846406805
:108240000F214905484001214905084000280ED06A
:1082500000BF08467D4988600020C86000BF052C2B
:1082600001D1C82001E07D20400106460EE000BF9C
:10827000012040057549C8600020886000BF052CBA
:1082800001D1C82001E0FF209130064670480470FB
:1082900064213046FEF7AAF86E490968484307464C
:1082A000002239466C480068FEF7D2FF05462EE1F1
:1082B00000BF05208005654988600020C86000BFB8
:1082C000084640680F2149054840012149050840FA
:1082D000002806D000BF08465C4988600020C860BE
:1082E00007E000BF012040055849C86000208860B1
:1082F00000BF57480470574800220168564800687C
:10830000FEF7A6FF054602E100BF052080054F49A4
:1083100088600020C86000BF00BF01204005C86021
:108320000020886000BF4A480470F0E000BF474961
:108330004868012189058143444A916001218905EA
:108340000140D16000BF43480022016842480068F4
:10835000FEF77EFF0546DAE000BF3C494868012190
:1083600089058143394A9160012189050140D16025
:1083700000BF384800688200811800223648006833
:10838000FEF766FF0546C2E000BF3049486801219C
:10839000890581432D4A9160012189050140D16001
:1083A00000BF2C48002201682B480068FEF750FFF0
:1083B0000546ACE000BF2549486801218905814395
:1083C000224A9160012189050140D16000BF214806
:1083D00000688200811800221F480068FEF738FFFD
:1083E000054694E000BF0F2040051849C8600020F2
:1083F000886000BF8BE000BF00BF00BF00BF174810
:108400000068FEF75BFF05461120061B002E27D0F3
:10841000002D25D1012E10D9C821714308466421B1
:10842000FDF7E4FF0B490968484307460022394637
:108430000A480068FEF70CFF054600BF0120C00592
:108440000249C8600020886012E00000000500506A
:1084500050200020542000205C20002060200020BC
:1084600000BF0120C0052B4988600020C86000BF04
:108470004DE000BF0F204005264988600020C860FD
:1084800000BF2548047042E000BF07208005214955
:1084900088600020C86000BF00BF01204005C860A0
:1084A0000020886000BF1C48047030E000BF0D2031
:1084B0004005184988600020C86000BF00BF012047
:1084C0008005C8600020886000BF134804701EE06B
:1084D00000BF0320C0050F4988600020C86000BFAE
:1084E00000BF03204005C8600020886000BF0A4824
:1084F00004700CE000BF00BF0F2040050549C860B4
:108500000020886000BF0448047000E000BF00BF86
:108510002846F8BD0005005050200020F8B504465C
:108520000D4613480068002813D0EAB22178104B9A
:1085300060681B689847064600BF3746002F06D084
:1085400000BF002211463846FEF724FC00BF00BFE2
:108550000CE0012D04D1207801216268904705E0EC
:10856000002D03D12078002162689047F8BD0000FB
:1085700014210020F0B58FB007460D4614461E4664
:1085800000BF002D01D0012000E0002000900098E5
:10859000002806D100BF002211461046FEF7FAFB64
:1085A00000BF00BF00BF002C01DD012000E0002063
:1085B00000900098002806D100BF00221146104606
:1085C000FEF7E8FB00BF00BF1C2107A8FDF70CFF6A
:1085D0006946087F02218843801C6946087700208D
:1085E00008900A900B900C900D9000BF012108A8F4
:1085F00081766846078700BF002001903178684681
:10860000017171784171807906218843811C684627
:10861000817180790821884301466846817180799B
:1086200010218843014668468171807941084900DC
:1086300068468171142102A8FDF7D6FE0EA80290AB
:1086400001A8039068460482002141828482069535
:1086500002AA07A902480088149BA2DF0FB0F0BD50
:10866000A0200020F0B585B00F27584800781421CD
:1086700048435649091D4418E5682078022804D06B
:10868000042823D005286FD16FE02069039050485B
:10869000008886026088801B0490039880190390EC
:1086A000A08880194519012189020498884206D2C0
:1086B000049882082846039921DF074605E0FF2237
:1086C00001322846039921DF074676E0A0680001C1
:1086D0004049401800890490A06800014018408972
:1086E0000390A06800014018406802900298A842D8
:1086F00005D10399049848436188884202D0A06854
:1087000002280DD101200007006981B22846FDF73B
:108710006DFE2F4909884618304620DF074622E0C3
:1087200001200007006981B22846FDF75FFE06467A
:1087300001200007006980B27043281A8008019068
:1087400001200007006980B2711C48436188491903
:10875000401A8008009031462046009B019A02F0A2
:1087600049FF074600BF28E026E001200007006916
:1087700081B22846FDF73AFE0646A088411901203D
:108780000007006980B27043081A80080490A0882E
:1087900040196188421801200007006980B2711CED
:1087A0004843801A8008039031462046039B049A70
:1087B00002F020FF074600E000BF00BF002F02D1FB
:1087C000012002498870384605B0F0BDD826002047
:1087D00004210020A427002010B50024064840787A
:1087E000002807DDFFF73EFF0446002C02D0112CC5
:1087F00000D10024204610BDD826002000231421DB
:1088000041430C4A53541421414389184B8001239E
:108810001421414389188B60002314214143891896
:10882000CB601421414389180B61142141438918FD
:108830008B807047DC260020FFB581B006461746C6
:108840000024204840780A2837D01E4800781D4967
:1088500049784018C4B20A2C02DB20460A38C4B258
:10886000142060431749091D0E541420604340181A
:108870000761142060434118029805C8CA608860E7
:10888000142060430F4A121D80180499418014205F
:10889000604380180A9981800025101F8078002885
:1088A00005D1FFF7DFFE0546112D00D10025054853
:1088B0004078401C0349487000E00425284605B074
:1088C000F0BD0000D826002010B50020084908801F
:1088D000084908700849087048708870002403E04F
:1088E0002046FFF78BFF641C0A2CF9D310BD000053
:1088F0000421002007210020D8260020FEB51E48B4
:108900000068401C002834D01B48006824214843DC
:108910001A4909684018456802F0DEFB01901848C2
:1089200004682146019802F0E6FFC61C154800784D
:10893000002801D102F0E2FBAE4201D2284600E05D
:10894000304604192402240A20460F49086000BF5B
:1089500002F0C2FB00900199009802F0CCFFC71C06
:108960002046019902F0C7FF874201D903F086F93A
:1089700001E002F0E1FBFEBD44210020382100208F
:10898000482100205C210020401501400146088854
:10899000062808DB08881922D201904205DD0888E4
:1089A000104A904201D0072070474888062808DB0B
:1089B00048881922D201904205DD4888094A904230
:1089C00001D00720F0E70888064A904208D048887E
:1089D000904205D008884A88904201DD0720E3E7ED
:1089E0000020E1E7FFFF0000F8B506460D461446FB
:1089F0002078801D1F2801D90C20F8BD3046FFF7D4
:108A0000C5FF0746002F01D03846F6E7052122783A
:108A1000501C2070A95412212278501C2070A95497
:108A200022785119308803F0B9F921784018207064
:108A300022785119708803F0B1F92178401820701C
:108A40000020DAE710B5044600BF00221146204698
:108A5000FEF7A0F900BF10BD30B587B01C216846F5
:108A6000FDF7C2FC002000900520C00301900F20FC
:108A7000000402900321684601730E48818968460C
:108A8000C181002101740C4805900C48069068468D
:108A9000FEF788FE044600BF2546002D06D000BF25
:108AA000002211462846FEF775F900BF00BF07B047
:108AB00030BD0000A421002055A40100458A01001A
:108AC00038B51F4801F0F6F9002829D11D48007873
:108AD00000280AD01C484069002820D000200090BF
:108AE000194841696846884719E018480078002805
:108AF00002D11548456801E01348856800222946DF
:108B000013480068FEF7A4FB0446002C07D00E486B
:108B10008069002803D00C488169204688470AE014
:108B200009484069002806D00120009006484169A4
:108B30006846884700BF00200249087038BD000021
:108B40007C20002088200020902500207820002014
:108B50008420002070B503460C460820002115E053
:108B60000C254D430B4EAD19AD7A2540002D0CD090
:108B7000094DAB4205D00C254D43AD192D899D42C1
:108B800002D11160002003E00520491C0029E7D034
:108B900000BF70BDA0260020FFFF000010B50446F6
:108BA00001210C2060430A4A80188172891E0C2022
:108BB000604380180181FF210C2060438018C1723E
:108BC0000C21614388180721FDF70CFC10BD000043
:108BD000A026002010B514484068C105C90D002921
:108BE00020D00A46103A50B200280DDA0E4B1C3342
:108BF0000407240F083CA408A4001B598407E40EB2
:108C0000E3401B069B0F0BE0084B032424021B19B7
:108C10008408A4001B598407E40EE3401B069B0F45
:108C2000D8B210BD0420FCE700ED00E000E100E058
:108C3000F8B50746694622480078FEF737F9064638
:108C4000002E00D0F8BD002534E0E8001D49096879
:108C500044181D48006822780121914008400028EE
:108C60000FD0606800280CD06078012804D1002162
:108C70002046FFF753FC1BE001212046FFF74EFC86
:108C800016E01148406822780121914008400028F0
:108C90000ED0606800280BD06078012804D1012133
:108CA0002046FFF73BFC03E000212046FFF736FC9F
:108CB000681CC5B2054800788542C6DB00BFC1E725
:108CC0001821002008210020202100200C21002054
:108CD000FEB504460E46A1786A46284801F01AFE01
:108CE0000546002D49D160780C214843244940189D
:108CF000807A20210840202801D0022E01D1214F66
:108D000004E0012E01D1204F00E0204FA0781C226A
:108D100050431F4A811800231C226846B847054665
:108D2000002D1AD1022E18D060780C214843144926
:108D30004018807A2021884361780C225143104AE0
:108D400089188872607818225043124A81181C23AF
:108D500018226846B847054600BF022E0DD020787D
:108D60000C2148430C494018807A80000B490A586E
:108D7000214668469047054600BFFEBD8C20002076
:108D8000A0260020D1AF0100A5AD0100EDB5010086
:108D9000AC25002070260020AC26002068C0010011
:108DA000F8B505460E461B4F00242EE01C206043FC
:108DB00019494018807EFF2826D13078022814D027
:108DC0001C2060434018807E022188431C2161439F
:108DD000114A891888761C21614389180846103089
:108DE00007223146FDF756FA0BE01C2060430A4982
:108DF0004018807E410849001C206043064A8018C4
:108E000081762C70002702E0641C072CCED300BFB3
:108E10003846F8BD43800000AC250020F8B5054673
:108E20000E4617460520009000241BE0002D06D1B9
:108E30001C2060430E494018008BB8420DD0002D15
:108E40000FD01C2161430A4A8918084610300722B6
:108E50002946FDF7CFF9002803D1346000200090A7
:108E600002E0641C072CE1D300BF0098F8BD0000AD
:108E7000AC250020F8B506460F46144600BF25462F
:108E8000002D06D000BF002211462846FDF782FFC4
:108E900000BF00BF00BF00BF0020F8BD7FB501F0DC
:108EA000D9FD044600BF2546002D06D000BF002294
:108EB00011462846FDF76EFF00BF00BF03A9012041
:108EC000FEF7B4FF044600BF2546002D06D000BFC4
:108ED000002211462846FDF75DFF00BF00BF03A832
:108EE00000F0F0FA044600BF2546002D06D000BF72
:108EF000002211462846FDF74DFF00BF00BF0621A6
:108F000001A80230FDF76EFA1E216846C180007A82
:108F100040084000401C694608726846007A0221F9
:108F20008843694608726846007A1C2188430C30E1
:108F3000694608726846007A2021884369460872AB
:108F4000072168464172102181720B48009001216F
:108F5000684601716946094800F026FC044600BFD6
:108F60002546002D06D000BF002211462846FDF7F9
:108F700011FF00BF00BF7FBD758E0100442000209F
:108F8000F0B589B004460026FF20029000BFFE48DD
:108F90000078002801D109B0F0BD00BF00BFFB4838
:108FA0000068002800D1F6E700BF06A800F07CFAB0
:108FB000054600BF2F46002F06D000BF00221146F5
:108FC0003846FDF7E7FE00BF00BF00200190079084
:108FD0000025201D0490342168468182FF2181767E
:108FE00000210176002008902088102813D0A08846
:108FF00008AA0221FFF7AEFD0546002D0BD10C217A
:1090000008984843E2494018C17A68468176089832
:10901000C1B2684641762088142879D006DC102831
:109020000BD0112879D0132874D1F5E0172872D00D
:10903000182871D05228F7D106E208AF3A4601212C
:10904000D448FFF787FD00900098002807D102213F
:109050000C2238685043CE4A8018817201E0042007
:10906000009000980546002D51D101261121684637
:1090700001730898C1B268464176A1880C2208980D
:109080005043C34A8018018102210C2208985043A2
:10909000BF4A801881720C2208995143BC4A881833
:1090A0000722A11DFDF7F6F8607B304000280AD0AA
:1090B000607B4008B849085CFF280AD0607B400804
:1090C000085C029005E0B34A02A9A01DFFF7A6FEC6
:1090D0000546002D1BD10298C1B20C2208985043BE
:1090E000AB4A8018C1720C210898484311464018B9
:1090F000807A082108430C2208995143A44A891810
:10910000887269460298887606A8FEF741FEA5E1B6
:1091100041E002E0A1E1C0E075E10C21089848437C
:109120009B494018807A022188430C2208995143B8
:10913000974A891888720C210898484311464018AC
:10914000807A0821084008280ED10C21089848434D
:1091500011464018807A4021084040280FD1002154
:1091600006A8FFF7B5FD0AE06846807EFF2806D016
:109170006946887E01F0FCFAFF2069468876102156
:109180000C2208985043824A8018817201261220CE
:109190006946087362E10C21089848437C494018ED
:1091A000C07AFF2823D1E28902A90020FFF736FE0A
:1091B0000546002D1BD10298C1B20C2208985043DD
:1091C000734A8018C1720C21089848431146401810
:1091D000807A082108430C22089951436C4A891867
:1091E000887269460298887606A8FEF7D1FD0C21A0
:1091F0000898484366494018C07AFF2806D01821CD
:109200000898484365494018001D0190A088002235
:10921000019981DF054621E1132069460873A08882
:109220005A4A121D00217FDF0546002D02D0079506
:10923000002631E00C210898484355494018807AAF
:10924000042108430C2208995143514A8918887215
:1092500001260C210898484311464018C07AFF287F
:109260001AD000BF16206946087318220899514386
:109270004B4A8918081D1421FDF7B6F80C210898EF
:10928000484343494018807A202108430C2208991A
:1092900051433F4A89188872E0E00C2108984843FE
:1092A0003B494018807A042188430C220899514395
:1092B000374A891888721420694608730126A079F4
:1092C000002802D0A07907909CE018210898484314
:1092D00032494118E07A88701821089848432F498C
:1092E0004118A07A48701822089951432B4A8918CE
:1092F000081D142221460C31FCF7CCFF0C210898E4
:10930000484323494018807A40210840402879D1B9
:109310000C21089848431E494018807A08210843C8
:109320000C22089951431A4A891888720C2108980E
:10933000484311464018C07AFF2851D10C220898A2
:1093400050430A46811802A8FFF72AFD0546002D62
:1093500044D16946029888760298C1B20C220898D6
:1093600050430B4A8018C172A1891C2202985043B5
:109370000C4A80180183E07A4007C00F002828D0EB
:109380001C22029951430FE098200020AC260020B7
:10939000A0260020FFFF000099200020702600205A
:1093A00088260020AC2500203A4A88181022214641
:1093B0002031FCF76FFF1C210298484335494018C3
:1093C000807E410849001C2202985043314A80188F
:1093D0008176012106A8FFF77BFC13E0079511E0D9
:1093E0000C21089848432C494018807A20210843D2
:1093F0000C2208995143284A89188872002106A82E
:10940000FFF766FC2AE00C210898484322494018DF
:10941000807A402108430C22089951431E4A89183A
:1094200088721520694608730020079001261B48A2
:10943000807A80001A4A115806A888470546002DF0
:1094400001D01848079009E01448807A8000144A37
:10945000115806A88847079000E000BF00BF002E03
:1094600016D003A906A8079AFDF7A4FC6846007B5E
:1094700012280DD100BF0C21089848430649401816
:10948000807A012802D00898FFF788FB00BF00BF50
:1094900000BF80E5AC250020A0260020AC260020DF
:1094A00088C00100418000000146002901D1044824
:1094B0007047FF20087048708870C8700020F7E778
:1094C0000E8000007FB50646002E02D1354804B05C
:1094D00070BD00240BE000BF00210C206043324A25
:1094E00011500C2060438018817200BF641C002C56
:1094F000F1D0002403E02046FFF750FB641C002C51
:10950000F9D018212948FCF76FFF002406E0204617
:1095100001F02EF9FF2026490855641C072CF6D3CC
:109520005021684681810721C18122480290224949
:1095300002A801F077FB0546002D30D101201F491C
:1095400008703078002821D100241CE0A1B26A46BE
:10955000194801F0DFF90546002D0FD11C216143A8
:10956000174A881800231C22694601F0E5FA0546CF
:10957000002D07D000201149087006E000200F4997
:10958000087002E0641C072CE0D308E06A4690896A
:10959000D289504381B2084801F004FA05462846B2
:1095A00095E700000E800000AC26002088260020F1
:1095B00099200020C59501008C20002098200020D3
:1095C000AC250020FFB58BB00F461D4600BF6F488D
:1095D0000068002801D10FB0F0BD00BF14985028DA
:1095E00000D9F8E70120029007A8FFF75DFF0646C3
:1095F00000BF0196019E002E06D000BF002211463A
:109600000198FDF7C7FB00BF00BF00216846017746
:1096100008A801700695149805900020019017E0A5
:10962000019881B203AA5A4801F074F90646002E47
:109630000BD1082203A90B98FCF7DCFD002804D10C
:109640000198C1B26846817705E00198401C0190FD
:1096500001980728E4D300BF6846807FFF287BD0AD
:10966000042F0AD11498502803D1202008A908708B
:1096700066E0402008A9087062E04649681A1C218B
:10968000FCF7B4FE0446072C1DD205A809900D98DE
:10969000002810D16946887F012181403E4A126826
:1096A0001140002901D0012100E00021002902D150
:1096B0000020029044E06946887F02F0B3FB20203E
:1096C00008A908703CE03549681A1821FCF78EFE9D
:1096D0000446002C0DD105A80990202108A801708E
:1096E00068464477807F1C2148432A4940180690E9
:1096F00026E02B49681A1821FCF778FE0446002C56
:1097000019D1302108A80170684644770121C1773A
:109710000C20604323494018807A02210840022827
:109720000ED06946497F182251431D4A88181821D6
:10973000FCF75AFE04E000200290402008A90870BF
:10974000029801281FD1042F07D108A90878032106
:10975000084308A908700FE015E0032F06D108A9F7
:1097600008780121084308A9087005E008A90878CD
:109770000221084308A9087005A8099008A907A8AC
:109780000D9AFDF717FB00BF25E70000AC2600206F
:109790008C200020AC250020942000207026002082
:1097A00088260020A026002070B505460C4600BF84
:1097B00017480078002801D1164870BD00BF002D61
:1097C00002D11448801DF8E7002C02D11148801DF9
:1097D000F3E72068002802D10E48801DEDE70E480F
:1097E000006800280FD10C49206808600622A11DDE
:1097F0000948001DFCF74EFD2079074988720020BA
:109800002870002601E0034E361F3046D5E70000E1
:109810009820002008800000AC2600200146144853
:109820000078144A127890421DD011480078401CEC
:109830000F4A107010460078022801D100201070E5
:109840000B48007880000C4A105808600B4A0868E2
:1098500012688018094A1060104600680002000A69
:109860001060012070470020086000BFFAE7000088
:1098700054210020552100204C21002048210020A7
:10988000F0B50346002426E0164E366824277E43B2
:10989000154F3F68F01946689E4203D94668F61A8C
:1098A00046601DE046689B1B4668341900264660EA
:1098B00006750C4E35680B4F066A3E600669002E31
:1098C00008D00E193602360A86600669C660166828
:1098D0000662156000BF03480068401C0028D3D111
:1098E00000BFF0BD44210020382100203EB500BF5C
:1098F0006846007801090901491C00916846007812
:10990000F02188431030009000BF0A221EA1684653
:109910007CDF044600BF2546002D06D000BF002294
:1099200011462846FDF736FA00BF00BF194878DF18
:10993000044600BF2546002D06D000BF0022114678
:109940002846FDF727FA00BF00BF002001900290D3
:10995000FF219131684681804900C1800021018149
:10996000FF219131418101A87ADF044600BF2546DD
:10997000002D06D000BF002211462846FDF70AFA46
:1099800000BF00BF3EBD00004E6F726469635F4858
:10999000726D00004103000001460020704702463E
:1099A000002070470246002070470000F8B50446CA
:1099B00000260027607818214843194908580028D4
:1099C0001FD060780C21484316494018807A402106
:1099D0000840402815D160780C21484311494018AF
:1099E000807A2021084020280BD060781821484335
:1099F0000B494018061D6078182148430849085A49
:109A000087B261780C225143064A891808893A4680
:109A10003146A9DF0546002D00D0034D2846F8BD8C
:109A200088260020A02600204180000070B5054651
:109A30000C466178182251430C4A881834231822A6
:109A4000294601F079F80646002E0DD160781821DC
:109A5000484306490858401C002805D10021607879
:109A600018225043014A1150304670BD882600200C
:109A7000F0B587B007460C461420019061780C229F
:109A80005143294A8918088901AA02A9AADF064672
:109A9000002E46D1617818225143244A8918081DA6
:109AA00069468A8802A9FCF7A5FB002812D16078D4
:109AB0000C2148431C494018807A022108400228A2
:109AC0002FD0617818225143184A88181821FCF7C2
:109AD0008BFC26E060781821484314490858002878
:109AE00001D0134D00E0134D694689886078182233
:109AF00050430E4A11506178182251430B4A89187D
:109B0000081D69468A8802A9FCF72EFB6078182296
:109B10005043064A8118342318223846A84706467F
:109B200000BF002007B0F0BDA0260020882600203E
:109B3000D1AF0100A5AD010070B505462846FFF77D
:109B400035FF0446002C02D100BF00BF044620466A
:109B500070BD70B505460E4631462846FFF766FFD4
:109B60000446002C02D100BF00BF0446204670BD51
:109B700070B505460E4631462846FFF779FF044684
:109B8000002C02D100BF00BF0446204670BD00007B
:109B900070B504460D460B480068FDF78FFB06467E
:109BA000002E00D070BD0848446005602046284360
:109BB00002460648016803480068FDF749FB06466F
:109BC00000BFEFE71C2100202021002010210020F1
:109BD00070B5064616491748FDF7E7FF85B21648E7
:109BE0000068401C1449086029461448FDF728FF06
:109BF0000446002C0ED0082C0CD01148844209D009
:109C00001048844206D000BF002211462046FDF7CE
:109C1000C1F800BF032108480068FCF7E7FB0029F2
:109C200001D0012000E000200749087070BD00004D
:109C3000042200202420002048200020A42100200D
:109C400004300000013400001A20002030B595B027
:109C500005460C4600200D9000BF08A8007D0109B4
:109C60000901491C08A80175007DF02188431030C6
:109C700008A9087500BF217B08A84175807D0621D1
:109C80008843811C08A881751C210EA8FCF7ACFB39
:109C900008A8007E10218843103008A9087600200B
:109CA0000F90119012900DA813900020149000BFF7
:109CB0000121684681772049818300BF00200690FA
:109CC000617B68460176A17B4176807E06218843D0
:109CD000811C68468176807E08218843014668465B
:109CE0008176807E10218843014668468176807E99
:109CF00041084900491C68468176142108A8FCF7F0
:109D000073FB07A8089006A8099001AA002128461D
:109D100000F014F8014668460185002141851421B0
:109D2000818501A80C90E8882B46083308AA0EA963
:109D3000A2DF15B030BD0000372A0000F7B582B0B1
:109D4000044617460020019001256079002803D0C1
:109D500004210198084301902220005D002803D0CF
:109D600002210198084301900398FF280ADD012190
:109D70000198084301907919039802F021F84019DD
:109D8000C5B205E00398C2B22846691CCDB23A5468
:109D90004C20005B002803DD10210198084301904E
:109DA000002618E0A81C14280BD94C20005B801B4F
:109DB0004200700023462433C1181846FCF7CEFA3F
:109DC0000DE07919720023462433985A01F0F8FF08
:109DD0004019C5B2761C4C20005BB042E2DC00BFEB
:109DE0004C20005B801B81B24C20015301983870DD
:109DF000284605B0F0BD0000F8B5294800780028D5
:109E000000D1F8BD27480068002801D1012000E0FA
:109E10000020054624480068002801D1012000E008
:109E20000020064600BF002D14D1684651DF0446CD
:109E3000052C01D101250CE0002C06D000BF00222A
:109E400011462046FCF7A6FF03E016490098096872
:109E5000884700BF002E1AD1144800880090694638
:109E60001348006861DF0446052C01D101260DE08E
:109E7000002C06D000BF002211462046FCF78AFFC6
:109E800004E00B48006808490968884700BF002DB6
:109E900002D0002E00D000E0C5E700BF00BFB0E751
:109EA0006421002074210020702100206C210020FA
:109EB0006821002001464888064A1288904206DB45
:109EC0004888044A5288904201DC012070470020F3
:109ED000FCE70000702000200C48008CC0B2012874
:109EE00012D10A48808C0007000F00280CD10748C7
:109EF000806AF0210840402806D10448C06A084022
:109F0000002801D1012070470020FCE7C00F00F0BD
:109F10001948008CC0B201282CD11748808C00074A
:109F2000000F002826D11448806AF021084000283C
:109F300006D11148C06A0840002801D101207047AD
:109F40000D48806AF0210840102806D10A48C06AEE
:109F50000840002801D10120F1E70748806AF0217C
:109F60000840302806D10448C06A0840002801D1C2
:109F70000120E4E70020E2E7C00F00F00146880777
:109F8000800F002801D1012070470020FCE700006D
:109F900010B5044605480078C007C00F002803D05C
:109FA00003480078FEF744F810BD00005820002058
:109FB00050200020FEB52B48006801902A48007808
:109FC000009040E00098C0002849096844182578AE
:109FD00035E01820684361680F18681CC5B2A07886
:109FE000A84200D100253878022802D0032823D1C6
:109FF0000EE02421786848431D4909684618307DE1
:10A00000002804D0786801F03BFD0020307514E092
:10A010000CE01449096824225143154A1268881833
:10A02000002101750F4A016A116000BF0D480068E8
:10A03000401C0028EDD100E000BF00BF00BF6078E9
:10A04000A842C6D100BF0098411EC9B200910028A5
:10A05000B8D1044801680198814201D00120FEBDB9
:10A060000020FCE7442100203C210020402100206A
:10A0700038210020FEB50746434800680290434857
:10A080000078019071E00198C000414909684518C5
:10A0900063E0781C002807D03E46242070433D49E9
:10A0A00009684418276A29E02978182359436A68FF
:10A0B00050182978491C29702978AA78914201D131
:10A0C00000212970466824217143324A12688C1895
:10A0D0000178012902D1217D002900D03DE081686D
:10A0E000A160C168E160016921614169E1612A49BA
:10A0F0000978002901D00021A16000BF2749A0688C
:10A100000968401A0002000A2549884208D22349FA
:10A11000A068096801F0EFFBE1684018606011E099
:10A120001E48A168006801F0E6FB0090E168009815
:10A13000814204D9E1680098081A606001E00020BB
:10A14000606000BF0020A060E06001202075801EDC
:10A150002062304601F026FC00BF781C002898D110
:10A1600028786978884294D100BF0198411EC9B20D
:10A170000191002887D1044801680298814201D0EA
:10A180000120FEBD0020FCE7442100203C210020EE
:10A1900040210020382100205D210020482100209E
:10A1A000FFFF7F00FDF74EFD01F06EFD00BF1C4973
:10A1B0000120FCF733FE054600BF2E46002E06D0D8
:10A1C00000BF002211463046FCF7E4FD00BF00BF8F
:10A1D00000BF002213490320FDF7B8FE044600BF6C
:10A1E0002546002D06D000BF002211462846FCF768
:10A1F000D1FD00BF00BFFEF751FEFFF777FBFCF774
:10A200009BFC01F091F801F015F8FEF725FCFDF735
:10A210009DF8FCF70DFD00BF00F055FBFCE70000CA
:10A220007C250020CD0C0000F8B505460E461446EE
:10A230002879801CC7B22078801CC0191F2801DD36
:10A240000C20F8BD781CC1B22278501C2070B1548B
:10A25000FF212278501C2070B1542278911928884F
:10A2600001F09CFD217840182070A88800280EDDA0
:10A27000A868002801D10720E3E7AA882378981965
:10A28000A968FCF707F82078297940182070002089
:10A29000D7E7F7B584B004460F4606980678B01C99
:10A2A0001F2803DC6078801C1F2802DD0C2007B00B
:10A2B000F0BD1F20801B801E85B20295B11C78184E
:10A2C00002A97DDF03900398002801D00398EEE7F0
:10A2D0002078022808D168460089A84204DC0920B9
:10A2E0000190684605890BE00820019060780028FD
:10A2F00004D06078A84201DC657801E068460589F1
:10A30000681CC2B23046711CCEB23A543046721C40
:10A31000D6B20199395406980178A81C0818C1B220
:10A32000069801700020C2E70146002070470246EF
:10A3300000207047024600207047000070B50546B7
:10A340002888102804D0112827D019287AD147E06E
:10A350000720FDF7E9FD044600BF2646002E06D083
:10A3600000BF002211463046FCF714FD00BF00BFBD
:10A37000A88836490880FCF71DFC354873DF044681
:10A3800000BF2646002E06D000BF002211463046F0
:10A39000FCF700FD00BF00BF55E00020FDF7C4FD45
:10A3A000044600BF2646002E06D000BF00221146FC
:10A3B0003046FCF7EFFC00BF00BF74DF044600BF6F
:10A3C0002646002E06D000BF002211463046FCF77C
:10A3D000E1FC00BF00BFFCF7AFFBFCF729FC32E05B
:10A3E000A87900282CD1FDF79FFD044600BF264622
:10A3F000002E06D000BF002211463046FCF7CAFCF2
:10A4000000BF00BF0320FDF72DFD044600BF264618
:10A41000002E06D000BF002211463046FCF7BAFCE1
:10A4200000BF00BF34DF044600BF2646002E06D022
:10A4300000BF002211463046FCF7ACFC00BF00BF55
:10A4400001E0FFE700BF00BF70BD00001820002042
:10A450007821002070B505462878002810D13B21CE
:10A460000848008876DF044600BF2646002E06D046
:10A4700000BF002211463046FCF78CFC00BF00BF35
:10A4800070BD00001820002010B504460822A11D50
:10A490000248FBF7FFFEFEF713FB10BD7C200020F7
:10A4A00010B50446A08809490880082221460E31CB
:10A4B0000748FBF7EFFE0020064908700648C089F0
:10A4C000002801D1FEF7FCFA10BD00007A20002020
:10A4D0007C20002078200020902500208A8842825D
:10A4E00070478A880284704710B5084800780128B0
:10A4F00002D0022807D102E0FCF764FA04E003204E
:10A500000249087000E000BF00BF10BDF820002025
:10A5100010B510480078002802D0032817D112E0A7
:10A5200004200D49086001200C4908600C48C068EF
:10A530000B498968401A02D0FCF706FA02E00120B4
:10A540000449087004E002200249087000E000BFDE
:10A5500000BF10BDF8200020002500400020004072
:10A56000C826002070B505460020C0430A4908806F
:10A5700000200A4908700A480068FCF79FFE04465C
:10A58000002C07D007488069002803D0054881695E
:10A590002046884770BD00007A20002078200020E7
:10A5A00084200020902500200022D2434282704760
:10A5B0000022D2430284704738B505460C46208BF2
:10A5C000022817D12868002814D000BF00BFA17E40
:10A5D000E27E120211430846C107C90F002902D0CA
:10A5E0000020009001E001200090694628462A687A
:10A5F000904700BF38BD000010B50446022C02D0C1
:10A60000032C0BD100E000BF06480078002804D0DE
:10A61000002004490870FCF70BFB00E000BF00BFFE
:10A6200010BD00004520002010B509480078012821
:10A6300007D0022804D0032806D1FCF7C3F904E0B0
:10A6400000BFFCF771F900E000BF00BF10BD0000C3
:10A65000F820002010B5FCF7B5F910BD10B5044680
:10A660002300FCF753F90504070D0A101300FFF748
:10A670003BFF0CE0FFF74CFF09E0FFF7D5FF06E0DA
:10A6800000F008F803E0FFF7E5FF00E000BF00BFBF
:10A6900010BD000010B503480078012801D1FCF777
:10A6A00053F910BDF820002070B50546AC1D208878
:10A6B0001249C989884220D1208B02281DD100BFB0
:10A6C00000BFA17EE27E120211430846C107C90FF6
:10A6D000002902D0FEF7F4F90FE009480068FCF702
:10A6E000EDFD0646002E07D004488069002803D0FF
:10A6F000024881693046884700BF70BD9025002020
:10A7000084200020F8B504460E46207D002820D085
:10A71000B51D2988608981421AD1288B022817D15A
:10A720002068002814D000BF00BFA97EEA7E120274
:10A7300011430846C107C90F002902D0002000902C
:10A7400001E001200090694620462268904700BF42
:10A7500000BFF8BD70B504460D46AE1D3188A08916
:10A76000814203D131462046FFF726FF70BD00002D
:10A7700010B504461C216143104A8918084611305F
:10A780000621FBF72FFE1C2161430C4A881810217B
:10A79000FBF728FEFF211C206043084A8018017443
:10A7A0001C206043801881760021C9431C2060432F
:10A7B00080180183204601F035FB10BDAC25002038
:10A7C00010B50146002029E014224A43154B1B68AE
:10A7D0009A58012383401A40002A1ED005221207EE
:10A7E00007231B02D2188300D25803231B049A4369
:10A7F00005231B07072424021B1984001A51052274
:10A80000120707231B02D2188300D25805231B0707
:10A81000072424021B1984001A51401C2028D3D37A
:10A8200010BD000030210020F8B505460E4600247A
:10A8300000BF002E01D0012000E000200746002FBD
:10A8400006D100BF002211461046FCF7A3FA00BF54
:10A8500000BF00BF002D01D0012000E0002007460E
:10A86000002F06D100BF002211461046FCF792FAD5
:10A8700000BF00BF32782046611CCCB22A5429198F
:10A88000708801F094FA0019C4B22919B08801F057
:10A890008EFA0019C4B22919F08801F088FA00195B
:10A8A000C4B200BF072C01D1012000E00020074600
:10A8B000002F06D100BF002211461046FCF76AFAAD
:10A8C00000BF00BFF8BD70B540DF044600BF25469D
:10A8D000002D06D000BF002211462846FCF75AFA88
:10A8E00000BF00BF70BD0000014600BF07480078F0
:10A8F000002801D10820704700BF002901D10E2097
:10A90000F9E70348407808600020F4E706210020BA
:10A91000D82600203CB5034600BF20480078002818
:10A9200001D108203CBD00BF002B01D10E20F9E76A
:10A93000002A01D10E20F5E71868002805D1186813
:10A940000001174C2058002801D10720EAE75C6875
:10A95000186801940090019C18680001104D40197E
:10A960000089484320180190009800012C460019E6
:10A970004089009C2401641924896043009C2401BF
:10A98000641964680019019CA04201D80720C9E736
:10A99000019C0098546010600020C3E7062100204D
:10A9A000A4270020F8B504460D4600BF27480078CC
:10A9B000002801D10820F8BD00BF002C01D10E20D5
:10A9C000F9E72068002805D12068000120490858CF
:10A9D000002801D10720EEE7206800011C4940183B
:10A9E0004089216809011A4A891809894843216860
:10A9F00009018918496840186168884201D8072010
:10AA0000D9E76068FFF7BAFA002801D11020D2E731
:10AA100023681B010E4FDB1962685B68D01A22683D
:10AA200012013B46D2181189FBF7E0FC002901D046
:10AA30000720C0E700202B46024621460090042054
:10AA4000FDF7FAFE06463046B5E700000621002075
:10AA5000A427002070B5FDF737FF00202E4908809D
:10AA60002E484069401C002808D0012212071269B4
:10AA700091B22A4A5069FBF7B9FC02E001200007B5
:10AA80004069801E01210907096989B248432449A8
:10AA9000086000202349088000BF0DE0002102016A
:10AAA000214B99500201D21811810201D2189181D3
:10AAB0000201D2185181401C0028EFD008201B4908
:10AAC000087016484069401C002808D0012212076F
:10AAD000126991B2114A5069FBF788FC02E001202B
:10AAE00000074069401E01210907096989B24843EE
:10AAF000064601200007006981B23046FBF776FC6C
:10AB0000054620DF0446002C04D101200849887046
:10AB100008490870204670BDFC200020001000107D
:10AB20000021002004210020A4270020072100206C
:10AB3000D826002006210020FFB581B00C4615461E
:10AB40001E4600BF35480078002802D1082005B015
:10AB5000F0BD00BF002C01D10E20F8E701980028BD
:10AB600001D10E20F3E72068002805D120680001FC
:10AB70002B490858002801D10720E8E72068000188
:10AB800027494018408921680901254A89180989FF
:10AB9000484321680901891849684018616888425A
:10ABA00001D80720D3E7002D06D0206800011C49FA
:10ABB00040180089A84201DA0720C8E7A8192168CF
:10ABC0000901174A89180989884201DD0720BEE773
:10ABD0000198FFF7D3F9002804D03046FFF7CEF9EB
:10ABE000002801D11020B2E76068FFF7C7F90028FC
:10ABF00001D11020ABE7606881192A460198FBF764
:10AC000049FB00952068000105490F5800220321E7
:10AC10002046019BB847002099E70000062100204C
:10AC2000A4270020F8B504460D4600BF5848007818
:10AC3000002801D10820F8BD00BF002C01D10E2052
:10AC4000F9E7002D01D10E20F5E72068002801D199
:10AC50000E20F0E7A08801210907096989B288421E
:10AC600002DCA088102801DA0720E4E7E088002849
:10AC700030D048484069401C002808D00122120703
:10AC8000126991B2434A5069FBF7B0FB02E0012020
:10AC900000074069401E01210907096989B248433C
:10ACA000E188A28851433C4A12688918884211D32E
:10ACB000E088A188484301210907096989B28842CF
:10ACC0000ADDA18801221207126990B2FBF798FBF6
:10ACD000002901D00720AEE720798007800F0028E7
:10ACE00001D00720A7E72D480088012801D10420C2
:10ACF000A1E72A480088286027480068686027493B
:10AD000009880901264A8918686848602349098822
:10AD1000090120685050A088204909880901891834
:10AD20000881E0881D4909880901891848810027A0
:10AD3000A688E1884E4300BF781C87B20120000737
:10AD4000006980B2B04205D201200007006980B2DC
:10AD5000361A00E0002601200007006980B20E4983
:10AD6000096840180C49086001200007006980B29A
:10AD7000B042E1D90948008800010949401887819B
:10AD800006480088401C05490880002053E7000061
:10AD9000062100200010001000210020FC200020CF
:10ADA000A4270020F8B504460E4615461F4600BFEE
:10ADB0002F480078002801D10820F8BD00BF002EE0
:10ADC00001D10E20F9E7002C01D10E20F5E7206813
:10ADD000002805D12068000126490858002801D123
:10ADE0000720EAE7206800012249401840892168CD
:10ADF0000901204A891809894843216809018918ED
:10AE0000496840186168884201D80720D5E7002DBD
:10AE100006D020680001174940180089A84201DACD
:10AE20000720CAE7E81921680901124A8918098927
:10AE3000884201DD0720C0E73046FFF79FF8002871
:10AE400004D03846FFF79AF8002801D11020B4E763
:10AE50006068FFF793F8002801D11020ADE72B467A
:10AE60003246214602200097FDF7E6FCA5E70000E8
:10AE700006210020A4270020FEB5054600265048E4
:10AE8000807801287ED100204D4988704D48007897
:10AE9000082811D1022D03D100204A49087002E090
:10AEA000002049490870FDF797FC0646002E02D0A5
:10AEB0003046FCF7E5F8FEBD022D02D0032D79D116
:10AEC00074E03F480078142148433D49091D441867
:10AED0003E480088401C3D4908802078022807D160
:10AEE0000846008880026188884201DB012000E07A
:10AEF000002007462078052805D132480078072829
:10AF000001D1012000E0002002902078042805D122
:10AF10002C480078072801D1012000E00020019092
:10AF2000207804280BD12948008880026188884253
:10AF300005DB24480078002801D1012000E0002032
:10AF400000900298002807D10198002804D10098A9
:10AF5000002801D1002F1FD000201A490870304668
:10AF6000FCF78EF816490878FDF748FC00201749D1
:10AF7000088013484078401E114948700846007800
:10AF8000401C00E019E00870084600780A2803DB3E
:10AF9000084600780A380870FDF71EFC0646002EA9
:10AFA00002D03046FCF76CF805E003E00D20FCF71A
:10AFB00067F800E000BF00BF00BF00BF7BE70000F4
:10AFC000D82600200721002006210020042100208F
:10AFD000F8B504460E4615461F4600BF2F480078B8
:10AFE000002801D10820F8BD00BF002E01D10E209D
:10AFF000F9E7002C01D10E20F5E72068002805D1E3
:10B000002068000126490858002801D10720EAE7F6
:10B010002068000122494018408921680901204A1E
:10B020008918098948432168090189184968401825
:10B030006168884201D80720D5E7002D06D0206836
:10B040000001174940180089A84201DA0720CAE721
:10B05000E81921680901124A89180989884201DD25
:10B060000720C0E73046FEF789FF002804D03846A5
:10B07000FEF784FF002801D11020B4E76068FEF7D6
:10B080007DFF002801D11020ADE72B463246214636
:10B0900005200097FDF7D0FBA5E700000621002062
:10B0A000A427002070B5054607480078002809D07D
:10B0B00006490748FCF779FD84B221460548FCF7AC
:10B0C00046FD00BF70BD00001A20002014220020A1
:10B0D0002C200020A4210020014840687047000077
:10B0E0000015014010B50446034884600321112077
:10B0F000FBF72EFB10BD00000015014010B501202C
:10B1000000040A4948600949403948601120FBF7AA
:10B11000C5FA1120FBF7CCFA0120054908602F2061
:10B12000FBF712F801200349087010BD40130140DD
:10B13000001001405C21002010B511200121814048
:10B140000E4A116000BF012000040D4988600C49BF
:10B150004039886001200B4948602F20FAF7F4FF3E
:10B160000120084988600020074908602F20FAF76D
:10B17000EBFF00200549087010BD000080E100E0F1
:10B180004013014000100140482100205C210020B4
:10B19000F0B502460C46002037E0012383401946F3
:10B1A00023460B40002B2FD0D5680D40002D05D134
:10B1B00001235B04D5680D43D56004E003231B0421
:10B1C000D5688D43D56005252D0707263602AD19B4
:10B1D0008600AD5903263604B543052636070727F2
:10B1E0003F02F6198700F55105252D07072636027F
:10B1F000AD198600AD591D430526360707273F02C6
:10B20000F6198700F55100BF401C2028C5D3F0BDBA
:10B2100010B50446054800780121484003490870EC
:10B22000084601780248FCF7B0FC10BD4C20002015
:10B23000A421002010B55120124908606420486004
:10B240000120886008731048FCF7A2FC8C200F498D
:10B250000860FF202D3048600A20886000200873B5
:10B260000B48FCF795FC64200A490860FF20F53084
:10B27000486001208860002008730748FCF788FCBC
:10B2800010BD0000F42100201C200020042200201A
:10B2900024200020142200202C200020FEB5074688
:10B2A0000E461446386B002801D10720FEBD002051
:10B2B000019032E0396B0C22019850430D18287927
:10B2C000801CC0B200900098401CC1B22278501C73
:10B2D0002070B15416212278501C2070B15422786D
:10B2E0009119288800F05AFD217840182070A8880C
:10B2F00000280EDDA868002801D10720D6E7AA881B
:10B3000023789819A968FAF7C5FF20782979401899
:10B3100020700198401CC0B201903420C15D01989A
:10B320008142C7DC0020C1E730B59BB0032100910A
:10B33000142116A8FBF758F800201690012110A838
:10B3400001776846189000BF18A800790109090123
:10B35000491C18A801710079F0218843103018A900
:10B36000087100BF00BF16A8407B0009000116A9A4
:10B37000487316A8407BF021884316A9487300BF84
:10B3800000BF16A8807B00090001887316A8807B87
:10B39000F021884316A9887300BF00BF18A8C079A0
:10B3A00001090901491C18A8C171C079F02188431D
:10B3B000103018A9C87100BF00BF16A8007C000992
:10B3C000000116A9087416A8007CF021884316A96C
:10B3D000087400BF4F48FCF765FB044600BF2546D4
:10B3E000002D06D000BF002211462846FBF7D2FCF4
:10B3F00000BF00BF142111A8FAF7F6FF00BF10A884
:10B40000407C01090901491C10A84174407CF021CD
:10B410008843103010A9487400BF00BF11A8807B7A
:10B4200000090001401C11A9887311A8807BF0213C
:10B430008843103011A9887300BF00BF11A8C07BDA
:10B4400000090001C87311A8C07BF021884311A92D
:10B45000C87300BF00BF10A8007D01090901491C85
:10B4600010A80175007DF0218843103010A90875DF
:10B4700000BF00201190012110A80172002013903C
:10B48000642110A8017411A92348FCF749F9044666
:10B4900000BF2546002D06D000BF002211462846D9
:10B4A000FBF778FC00BF00BF402101A8FAF79CFF22
:10B4B0001AA101A8FCF79EFB00BF10A800780109A3
:10B4C0000901491C10A801700078F0218843103050
:10B4D00010A9087000BF00BF10A840780009000143
:10B4E000487010A84078F021884310A9487000BF28
:10B4F00001A8FCF7B3F9044600BF2546002D06D08D
:10B5000000BF002211462846FBF744FC00BF00BFE5
:10B510001BB030BDA42100208C2100204E6F72642E
:10B52000696353656D69636F6E647563746F7200F0
:10B5300070B506460C46154629462046C046C0460C
:10B5400070BD00000146002901D10E20704702485D
:10B5500001600020FAE7000070210020FFB581B0F3
:10B560000C4616461F46002C02D1072005B0F0BD40
:10B5700020468107890F002901D1012100E0002127
:10B58000002901D10720F1E7094804600948068035
:10B59000094807600949019810DF0546002D01D0D0
:10B5A0002846E3E7012006490870162026DFDDE77C
:10B5B000682100206C2100206021002031B50100AD
:10B5C000642100200146002901D10E207047024865
:10B5D00001600020FAE700007421002001468888FD
:10B5E000002801DD072070470020FCE710B5044665
:10B5F000002010BDFFB583B004460F461546032654
:10B600008D48007800280BD1002D06D1069800281F
:10B6100003D102208849087002E0012086490870A1
:10B62000854800780300FBF771F907FD05314E846A
:10B63000BAD7FD0081484069401C002808D001228B
:10B640001207126991B27D4A5069FAF7CFFE02E003
:10B65000012000074069401E01210907096989B2DC
:10B66000484302900120000700690004820C012079
:10B670000007006980B278430146029821DF064640
:10B68000002E02D102206C490870D0E0384620DF3D
:10B690000646002E16D1002D11D1069800280AD199
:10B6A0002078042803D10720634908700AE00520A8
:10B6B0006149087006E004205F49087002E0032039
:10B6C0005D490870B3E05D484069401C002808D01F
:10B6D00001221207126991B2584A5069FAF786FEA0
:10B6E00002E0012000074069401E012109070969A5
:10B6F00089B24843012109070290096989B2794357
:10B7000008462A46029921DF0646002E10D10698E7
:10B7100000280AD12078042803D106204649087061
:10B7200006E005204449087002E004204249087000
:10B730007DE042484069401C002808D001221207E1
:10B74000126991B23D4A5069FAF750FE02E00120B9
:10B7500000074069401E01210907096989B2484371
:10B76000A900401861884018012109070290096961
:10B7700089B27943AA00891862888818069A0299C2
:10B7800021DF0646002E09D12078042803D10620A7
:10B790002949087002E005202749087047E0012088
:10B7A0000007006980B27843AB00C018029060883F
:10B7B00082082169029821DF0646002E0BD1002D58
:10B7C00006D10698002803D107201B49087002E023
:10B7D0000620194908702AE018484069401C0028D2
:10B7E00008D001221207126991B2144A5069FAF77F
:10B7F000FDFD02E0012000074069401E012109070C
:10B80000096989B24843019001200007006981B2AB
:10B810000198FAF7EBFD029020DF0646002E04D1D6
:10B82000072000E002E00449087000E000BF00BF0C
:10B83000304607B0F0BD00000721002000100010C6
:10B8400010B504462046FFF717FB2046FEF7D4FE4E
:10B8500010BD70B504460D4600BF002D01D001207B
:10B8600000E000200646002E06D100BF002211464F
:10B870001046FBF78FFA00BF00BF00BF002C01D0BD
:10B88000012000E000200646002E06D100BF002265
:10B8900011461046FBF77EFA00BF00BF28782070E3
:10B8A00029882879FF231B02194000200206080A74
:10B8B0001043607028791B02296819400020020497
:10B8C000080C1043A07029791B0228681840002139
:10B8D0000902000E0843E07028792071287A60710F
:10B8E000190CA8680840000AA0710902A86808405D
:10B8F000000CE07170BD0246501A0002000A704749
:10B9000070B504460D480068002812D00B4AE16962
:10B91000A06912689047054600BF2E46002E06D04B
:10B9200000BF002211463046FBF734FA00BF00BFCB
:10B9300002E0A169E069884770BD0000582100203D
:10B94000FEB50020C0430190104804681048076805
:10B950006846FDF763FF0546FEF72CFB0646002D03
:10B9600005D001AA21460098FDF78AFF012601981B
:10B97000FEF780FB002800D00126002E02D03846BA
:10B98000FCF7BCFF002003490870FEBD48210020E1
:10B99000442100205D21002010B51420FAF792FE0A
:10B9A00010BD0000F0B5024624205043324B1B6806
:10B9B000C11832480068401C002802D12F4802609C
:10B9C00059E02E484B680068242460432A4C2468C0
:10B9D00000194068834217D8284800682423584338
:10B9E000254B1B68C01840684B68C31A2348006881
:10B9F00024246043204C2468001943601F480068D9
:10BA000008621E48026036E04B681C4D2C682868AE
:10BA10000DE024254543184E3668AD196D685B1B53
:10BA2000044624254543144E3668AD19286A451C42
:10BA3000002D07D0242545430F4E3668AD196D689B
:10BA40009D42E6D3451C002D0CD0242545430A4ECB
:10BA50003668AD196D68EE1A24254543064F3F68D8
:10BA6000ED196E604B60086224256543024E36680E
:10BA7000AD192A6200BFF0BD38210020442100200A
:10BA800070B502462C4C2168084609E0904200D16E
:10BA900009E0014624244443284D2D686419206A96
:10BAA000441C002CF2D100BF441C002C00D170BDFE
:10BAB000814217D1204C246824256C431F4D2D68EA
:10BAC0006419246A1C4D2C602C462468641C002CCC
:10BAD00008D101241A4DAC6000241A4D2C600124B9
